:100000000C9434000C9446000C9446000C9446006A
:100010000C9446000C9446000C9446000C94460048
:100020000C9446000C9446000C9446000C94460038
:100030000C9446000C9446000C9446000C94460028
:100040000C9448000C9446000C9446000C94460016
:100050000C9446000C9446000C9446000C94460008
:100060000C9446000C94460011241FBECFEFD8E03C
:10007000DEBFCDBF21E0A0E0B1E001C01D92A930FC
:10008000B207E1F70E9492000C94DC000C9400008F
:100090001F920F920FB60F9211242F933F938F93BD
:1000A0009F93AF93BF938091050190910601A0911A
:1000B0000701B09108013091040123E0230F2D378F
:1000C00020F40196A11DB11D05C026E8230F02965C
:1000D000A11DB11D20930401809305019093060199
:1000E000A0930701B0930801809100019091010154
:1000F000A0910201B09103010196A11DB11D809351
:10010000000190930101A0930201B0930301BF91FC
:10011000AF919F918F913F912F910F900FBE0F90B4
:100120001F901895789484B5826084BD84B58160F1
:1001300084BD85B5826085BD85B5816085BD8091B2
:100140006E00816080936E0010928100809181002A
:100150008260809381008091810081608093810022
:10016000809180008160809380008091B1008460E4
:100170008093B1008091B00081608093B000809145
:100180007A00846080937A0080917A008260809304
:100190007A0080917A00816080937A0080917A0061
:1001A000806880937A001092C100C0E0D0E0209770
:1001B000F1F30E940000FBCFF894FFCFFFFFFFFF99
:1001C000FFFFFFFFFFFFFFFFFFFFFFFFFFFFFFFF3F
:1001D000FFFFFFFFFFFFFFFFFFFFFFFFFFFFFFFF2F
:1001E000FFFFFFFFFFFFFFFFFFFFFFFFFFFFFFFF1F
:1001F000FFFFFFFFFFFFFFFFFFFFFFFFFFFFFFFF0F
:10020000089526E040E05BE460E070E085E492E081
:100210000E94A90861E087E00E94570762E070E051
:1002200087E090E00E94E20061E088E00E945707CA
:1002300062E070E088E090E00E94E20061E089E026
:100240000E94570762E070E089E090E00C94E200C1
:10025000682F87E00C949007CF93DF9300D01F9214
:10026000CDB7DEB72B834A8369830E9487006981FB
:10027000862F0E9487004A81842F0E9487002B814D
:10028000822F0F900F900F90DF91CF910C948700E9
:100290002091320120931F0180913301809320012E
:1002A0008091340180932101809135018093220156
:1002B000809136018093230180913701809324013E
:1002C0008091380180932501809139018093260126
:1002D00080913A018093270180913C0190E0982F12
:1002E000882730913D01830F911D909329018093C0
:1002F000280180913E0190E0982F882730913F019E
:10030000830F911D90932B0180932A0180914001CE
:1003100090E0982F882730914101830F911D909391
:100320002D0180932C018091420190E0A0E0B0E08B
:10033000BA2FA92F982F882730914301830F911D41
:10034000A11DB11DDC01992788274091440150E08F
:10035000542F4427662757FD6095762F840F951FED
:10036000A61FB71F30914501830F911DA11DB11D1F
:1003700080932E0190932F01A0933001B09331010F
:1003800081E0203E08F480E080931E01089581E022
:100390000E94D40061E08AE00E9457070E949E05F7
:1003A00080913A02882399F09FB7F89480913A029D
:1003B000813059F48DB3809338022DB38091390286
:1003C000809582238DBB9FBF02C09093380283E546
:1003D0008CBD1DBC60E08DE00E94900764E170E080
:1003E00080E090E00E94610680E00E94D40084E6F4
:1003F00090E00E94890681E00E94D40062E370E0F0
:1004000080E090E00E94610620E040E063E58CEA35
:100410000E942C0181E090E0909335028093340299
:1004200008950E94D40560E08BE00E94570760E0C9
:100430008DE00E94570780E00E94D40060E08AE0CF
:100440000E94570710923502109234020895962F99
:10045000672F242F880F880F880F492F805C0C94FA
:100460002C01CF93DF9300D0CDB7DEB7482F692F93
:1004700080E090E049836A830E94280120E049815E
:100480006A818CE40E942C016EE170E080E090E0D3
:100490000E94610681E090E00F900F90DF91CF9174
:1004A0000C94280120912A0130912B018091320275
:1004B000909133022032310511F4807F0895203469
:1004C000310511F4807E08952038310511F4807CC7
:1004D00008952115314009F480780895EF92FF9234
:1004E0000F931F93CF93DF937C010E9452028C01E4
:1004F000C0E0D0E0CE15DF056CF50E94520208176F
:10050000190731F0C8010E9431020E9452028C0189
:10051000FE01EE5CFE4F6091320270913302408129
:1005200080E00E9427022296FE01EF5CFE4F609160
:10053000320270913302408181E00E9427022091B3
:100540003202309133022F5F3F4F309333022093BA
:100550003202D0CFC8010E94310280E1DF91CF91F9
:100560001F910F91FF90EF900895462F880F880FED
:10057000880F20E0672F805E0C942C010F931F934F
:10058000CF93DF938C01C0E0D0E0C017D10724F5F2
:10059000609132027091330280E00E94B502682FB0
:1005A00085E492E00E94F00960913202709133027A
:1005B00081E00E94B502682F85E492E00E94F00974
:1005C00020913202309133022F5F3F4F309333023C
:1005D000209332022296D9CF80E1DF91CF911F91F3
:1005E0000F910895EF92FF920F931F93CF93DF9394
:1005F0007C010091320210913302000F111FE801BB
:10060000CE01801B910B8E159F056CF42FEF4C2FA4
:100610006D2F80EA0E942C01682F85E492E00E94F1
:10062000F0092196EDCF80E1DF91CF911F910F91DD
:10063000FF90EF90089585E492E00E94C607892B11
:10064000D1F385E492E00E94DF0708950F931F9392
:10065000CF93DF938C01C2E3D1E0CE01825391406E
:100660008017910724F40E941B038993F6CFDF9132
:10067000CF911F910F910895EF92FF920F931F93C7
:10068000CF93DF93EC017B01CB010E94260380E036
:1006900090E00E94280102E311E0EC0EFD1ECE1551
:1006A000DF0581F0F80121918F014C2F6D2F80EC37
:1006B0000E942C016DE270E080E090E00E946106F3
:1006C0002196EDCF81E090E00E94280180E1DF914A
:1006D000CF911F910F91FF90EF9008950F931F936B
:1006E000CF93DF93EC01009132021091330280919D
:1006F0002C0190912D018C179D0718F0000F111FF0
:100700000BC0809136029091370201969093370288
:100710008093360281E111C0C132D10548F060E218
:1007200070E0C8010E943C03005E1F4FA097F4CF09
:10073000BE01C8010E943C0380E1DF91CF911F916F
:100740000F9108950E941B03803239F464E185E41F
:1007500092E00E94F00960E10AC080913602909117
:1007600037020196909337028093360265E185E463
:1007700092E00C94F009CF93C82F0E941B038032A3
:1007800061F464E185E492E00E94F0096C2F85E455
:1007900092E00E94F00960E10AC0809136029091D7
:1007A00037020196909337028093360265E185E423
:1007B00092E0CF910C94F009813859F020F4803800
:1007C00061F482E00BC0823831F0833931F483E583
:1007D00005C081E003C082E101C080E00C94BB034E
:1007E00084E090E00E94260320913501409134017D
:1007F00060913301809132010E942C010C94BB0363
:10080000CF93DF93EC010E9426030E941B038032EA
:1008100051F464E185E492E00E94F009CE010E9467
:100820006E02682F0AC080913602909137020196BD
:10083000909337028093360265E185E492E0DF9180
:10084000CF910C94F009CF93DF930E941B03C82F24
:10085000D0E0DC2FCC270E941B03C80FD11D0E94C3
:100860001B03863429F4CE01DF91CF910C94000450
:100870008534D1F4CE010E946E03C82F0E941B0361
:10088000803239F464E185E492E00E94F0096C2F33
:100890000CC08091360290913702019690933702F6
:1008A0008093360265E101C061E185E492E0DF9169
:1008B000CF910C94F0090F931F93CF93DF930E9475
:1008C0001B03C82F0E941B03082F0E941B03182F15
:1008D0000E941B03803259F08091360290913702BA
:1008E0000196909337028093360265E118C0D0E0FC
:1008F000DC2FCC27C00FD11D64E185E492E00E947B
:10090000F009163421F4CE010E94BE0207C015344E
:1009100021F4CE010E94F20201C081E1682F85E43A
:1009200092E0DF91CF911F910F910C94F0090E94FA
:100930001B03803259F08091360290913702019664
:10094000909337028093360265E127C064E185E425
:1009500092E00E94F00920E040E060E080E30E9425
:100960002C01682F85E492E00E94F00920E041E02C
:1009700060E080E30E942C01682F85E492E00E94F1
:10098000F00920E042E060E080E30E942C01682F43
:1009900085E492E00E94F00960E185E492E00C9425
:1009A000F0090E941B03813509F47EC0F0F4813404
:1009B00009F45EC050F4803309F444C0813309F473
:1009C00046C0803209F083C078C0853409F454C031
:1009D000803509F457C0823409F079C084E190E091
:1009E0000E9426030E9448014BC0813609F455C07D
:1009F00000F5863509F456C0803609F44CC08535BB
:100A000009F065C00E941B0390E09093330280932D
:100A100032020E941B0390E0982F88272091320217
:100A200030913302280F391F309333022093320262
:100A300027C08437A9F18537F1F1843609F047C022
:100A40000C942304109237021092360219C00E94AF
:100A50001B03803291F564E185E492E00E94F00985
:100A600062E071E085E492E00E94EE0960E13FC03F
:100A70000E941B030C94DC0385E090E00E94260397
:100A80000C94A2038091340290913502892BC1F716
:100A90000E94C701F5CF0E941B030E941B03F0CFE9
:100AA0000C945B040C94F0031092370210923602FF
:100AB0000E941102E5CF0C94970480913602909128
:100AC0003702019690933702809336020FC08091CF
:100AD0003602909137020196909337028093360246
:100AE0000E941B03803211F462E101C065E185E4DC
:100AF00092E00C94F0098091340290913502892B98
:100B000011F061E001C060E087E00E9490078091F1
:100B1000360290913702892B11F061E001C060E04C
:100B200088E00E9490070E948E0085E492E00E9477
:100B3000C607892B11F00C94D1040895CF93CFB739
:100B4000F89480913B02811127C0EAE9F0E084919A
:100B5000E6E8F0E09491E82FF0E0EE0FFF1FE25599
:100B6000FF4FA591B4918C91892321F461E08AE033
:100B70000E94900761E08AE00E9457078CB580616F
:100B80008CBD8CB580648CBD61E08DE00E94570700
:100B900061E08BE00E94570780913B028F5F80935A
:100BA0003B02CFBFCF9108959FB7F89480913B024D
:100BB000882319F0815080933B0280913B02811180
:100BC00005C08CB58F7B8CBD10923A029FBF0895F3
:100BD0001F920F920FB60F9211242F933F938F9372
:100BE0009F93AF93BF9380913D0290913E02A0915D
:100BF0003F02B091400230913C0223E0230F2D3799
:100C000020F40196A11DB11D05C026E8230F029610
:100C1000A11DB11D20933C0280933D0290933E02A2
:100C2000A0933F02B0934002809141029091420212
:100C3000A0914302B09144020196A11DB11D809381
:100C4000410290934202A0934302B0934402BF91A9
:100C5000AF919F918F913F912F910F900FBE0F9069
:100C60001F9018952FB7F89460913D0270913E0245
:100C700080913F02909140022FBF08953FB7F894B2
:100C80008091410290914202A0914302B0914402AE
:100C900026B5A89B05C02F3F19F00196A11DB11DD7
:100CA0003FBF6627782F892F9A2F620F711D811DF4
:100CB000911D42E0660F771F881F991F4A95D1F753
:100CC0000895CF92DF92EF92FF92CF93DF936B0163
:100CD0007C010E943E06EB01C114D104E104F10441
:100CE00089F00E94070A0E943E066C1B7D0B683E3D
:100CF000734090F381E0C81AD108E108F108C851A7
:100D0000DC4FEACFDF91CF91FF90EF90DF90CF9053
:100D100008958230910538F0880F991F880F991F28
:100D200005970197F1F70895789484B5826084BDA2
:100D300084B5816084BD85B5826085BD85B58160DF
:100D400085BDEEE6F0E0808181608083E1E8F0E03F
:100D50001082808182608083808181608083E0E86E
:100D6000F0E0808181608083E1EBF0E0808184604D
:100D70008083E0EBF0E0808181608083EAE7F0E04F
:100D800080818460808380818260808380818160B3
:100D900080838081806880831092C10008951F93B2
:100DA000CF93DF93182FEB0161E00E945707209744
:100DB00011F460E004C0CF3FD10539F461E0812F28
:100DC000DF91CF911F910C949007E12FF0E0E8594B
:100DD000FF4FE491E330F9F048F4E130B9F0E2304C
:100DE000A1F584B5806284BDC8BD34C0E730E9F0A8
:100DF000E83019F1E43049F58091800080628093F9
:100E00008000D0938B00C0938A0024C084B5806892
:100E100084BDC7BD1FC08091800080688093800022
:100E2000D0938900C093880015C08091B00080687D
:100E30008093B000C093B3000DC08091B000806279
:100E40008093B000C093B40005C0C038D1050CF049
:100E5000B5CFAFCFDF91CF911F910895833081F04F
:100E600028F4813099F08230A1F008958730A9F0FC
:100E70008830B9F08430D1F4809180008F7D03C038
:100E8000809180008F7780938000089584B58F775C
:100E900002C084B58F7D84BD08958091B0008F77A6
:100EA00003C08091B0008F7D8093B0000895CF93F0
:100EB000DF9390E0FC01E458FF4F2491FC01E057E0
:100EC000FF4F8491882349F190E0880F991FFC011E
:100ED000E255FF4FA591B4918C559F4FFC01C591F0
:100EE000D4919FB7611108C0F8948C91209582230A
:100EF0008C93888182230AC0623051F4F8948C91DB
:100F0000322F309583238C938881822B888304C071
:100F1000F8948C91822B8C939FBFDF91CF91089591
:100F20000F931F93CF93DF931F92CDB7DEB7282F78
:100F300030E0F901E859FF4F8491F901E458FF4F7F
:100F40001491F901E057FF4F04910023C9F0882361
:100F500021F069830E942E076981E02FF0E0EE0FF7
:100F6000FF1FEC55FF4FA591B4919FB7F8948C915A
:100F7000611103C01095812301C0812B8C939FBF09
:100F80000F90DF91CF911F910F910895FC01818DFA
:100F9000228D90E0805C9F4F821B91098F7399276F
:100FA0000895FC01918D828D981731F0828DE80FA4
:100FB000F11D858D90E008958FEF9FEF0895FC015E
:100FC000918D828D981761F0828DDF01A80FB11D80
:100FD0005D968C91928D9F5F9F73928F90E00895A4
:100FE0008FEF9FEF089583E699E0892B49F080E029
:100FF00090E0892B29F00E94630981110C94000074
:101000000895FC01848DDF01A80FB11DA35ABF4FC5
:101010002C91848D90E001968F739927848FA689F7
:10102000B7892C93A089B1898C9180648C93938D1E
:10103000848D981306C00288F389E02D80818F7D0E
:1010400080830895CF93DF93EC01888D8823C9F0C6
:10105000EA89FB89808185FD05C0A889B9898C91C1
:1010600086FD0FC00FB607FCF5CF808185FFF2CF5C
:10107000A889B9898C9185FFEDCFCE010E94010826
:10108000E7CFDF91CF910895CF92DF92FF920F9338
:101090001F93CF93DF931F92CDB7DEB76C0181E032
:1010A000D60158968C9358975B969C915B975C966B
:1010B0008C915C97981307C05096ED91FC915197D5
:1010C000808185FD2EC0F601038D10E00F5F1F4F5C
:1010D0000F731127F02EF601848DF81211C00FB690
:1010E00007FCF9CFD6015096ED91FC915197808184
:1010F00085FFF1CFC60169830E9401086981EBCFAA
:10110000838DE80FF11DE35AFF4F6083D6015B9694
:101110000C935B975296ED91FC915397808180627E
:101120000CC0D6015696ED91FC915797608350966E
:10113000ED91FC91519780818064808381E090E003
:101140000F90DF91CF911F910F91FF90DF90CF9083
:101150000895BF92CF92DF92EF92FF92CF93DF93E9
:10116000EC016A017B01B22EE889F98982E0808373
:10117000411581EE580761057105A1F060E079E045
:101180008DE390E0A70196010E94080A21503109E1
:10119000410951095695479537952795211580E1C5
:1011A000380798F0E889F989108260E874E88EE1E0
:1011B00090E0A70196010E94080A215031094109D7
:1011C00051095695479537952795EC85FD853083D0
:1011D000EE85FF852083188EEC89FD89B082EA892F
:1011E000FB89808180618083EA89FB8980818860B6
:1011F0008083EA89FB89808180688083EA89FB8912
:1012000080818F7D8083DF91CF91FF90EF90DF9081
:10121000CF90BF9008951F920F920FB60F92112496
:101220002F938F939F93EF93FF93E0915502F0914B
:1012300056028081E0915B02F0915C0282FD12C057
:10124000908180915E028F5F8F7320915F02821781
:1012500051F0E0915E02F0E0EB5BFD4F958F8093E3
:101260005E0201C08081FF91EF919F918F912F913C
:101270000F900FBE0F901F9018951F920F920FB6F0
:101280000F9211242F933F934F935F936F937F930C
:101290008F939F93AF93BF93EF93FF9385E492E077
:1012A0000E940108FF91EF91BF91AF919F918F91A3
:1012B0007F916F915F914F913F912F910F900FBE52
:1012C0000F901F90189585E492E00E94C60721E0D8
:1012D000892B09F420E0822F089510924802109281
:1012E000470288EE93E0A0E0B0E08093490290933B
:1012F0004A02A0934B02B0934C028EE091E090938F
:1013000046028093450285EC90E0909352028093D0
:10131000510284EC90E0909354028093530280EC4D
:1013200090E0909356028093550281EC90E0909368
:1013300058028093570282EC90E090935A02809377
:10134000590286EC90E090935C0280935B021092CD
:101350005E0210925F021092600210926102089584
:10136000CF92DF92EF92FF920F931F93CF93DF9371
:101370007C016A01EB0100E010E00C151D0571F025
:101380006991D701ED91FC910190F081E02DC701A9
:101390000995892B19F00F5F1F4FEFCFC801DF911F
:1013A000CF911F910F91FF90EF90DF90CF90089514
:1013B0006115710581F0DB010D900020E9F7AD01A9
:1013C00041505109461B570BDC01ED91FC91028005
:1013D000F381E02D099480E090E008950C94D80901
:1013E000DC01ED91FC910190F081E02D09940895CC
:1013F0000E9494060E94F7090E940101C3EFD7E002
:101400000E947B052097E1F30E94F307F9CF08952E
:10141000A1E21A2EAA1BBB1BFD010DC0AA1FBB1FF8
:10142000EE1FFF1FA217B307E407F50720F0A21B6A
:10143000B30BE40BF50B661F771F881F991F1A94D7
:1014400069F760957095809590959B01AC01BD0101
:10145000CF010895EE0FFF1F0590F491E02D099440
:10146000F894FFCF088041565220495350000000A5
:1014700000004408B009C607DF07D1072208FFFFB4
:101480008F7D84BD08958091B0008F7703C08091D7
:10149000B0008F7D8093B00008951F93CF93DF93AA
:1014A000282F30E0F901EC56FD4F8491F901E05806
:1014B000FD4FD491F901E459FD4FC491CC23C1F003
:1014C000162F81110E94240AEC2FF0E0EE0FFF1F6F
:1014D000EE59FD4FA591B4919FB7F894111104C036
:1014E0008C91D095D82302C0EC91DE2BDC939FBF6A
:1014F000DF91CF911F910895BF92CF92DF92EF922B
:10150000FF920F931F93CF93DF93EC01062FB42E1E
:10151000C52E122FDFB6F894898D9A8DDC01ED91DE
:10152000FC910088F189E02D099560E08B8D0E9487
:101530004D0A898D9A8D602F6068DC01ED91FC91D8
:101540000190F081E02D0995082FEB2CFC2C112344
:1015500071F0898D9A8DF70161917F01DC01ED9128
:10156000FC910190F081E02D09951150F0CF61E0E0
:101570008B8D0E944D0A898D9A8DDC01ED91FC9135
:101580000288F389E02D0995DFBE802FDF91CF918E
:101590001F910F91FF90EF90DF90CF90BF90089533
:1015A0000F931F93CF93FC01C3A18C01095A1F4FC6
:1015B000F8012081C21BCC3308F0CBE3F801208175
:1015C000AC014C5D5F4F420F511D2C2F6FE70E9405
:1015D0007C0AF8018081C80FC083CF911F910F91C1
:1015E0000895CF93DF93EC01FC01E95AFF4F9081FE
:1015F0008BA1981718F4CE010E94D00A4BA16EE37C
:10160000CE010E946F078A819B81039769F04F8DFD
:10161000486067E0CE010E946F07CE010E94CD09AD
:1016200083E090E09B838A83DF91CF910895BF92FE
:10163000CF92DF92EF92FF920F931F93CF93DF939E
:10164000EC01062FB42EC52E122FDFB6F894898D2B
:101650009A8DDC01ED91FC910088F189E02D0995CE
:1016600060E08B8D0E944D0A898D9A8D602F6F7777
:10167000DC01ED91FC910190F081E02D0995082F9E
:10168000EB2CFC2C112379F0898D9A8DDC01ED91E6
:10169000FC910190F081E02D60E00995F7018193C4
:1016A0007F011150EFCF61E08B8D0E944D0A898D33
:1016B0009A8DDC01ED91FC910288F389E02D09956A
:1016C000DFBE802FDF91CF911F910F91FF90EF90A0
:1016D000DF90CF90BF900895FF920F931F93CF9309
:1016E000DF9300D0CDB7DEB78C0122E0AE014F5FB3
:1016F0005F4F63E00E94170B898187FF27C043E09B
:1017000068E0C8010E946F0740E068E0C8010E94DD
:101710006F07D80112968D919C911397039771F4DE
:1017200082E090E013969C938E931297F801E95A09
:10173000FF4F1082C8010E94F10A08C0F80182819F
:101740009381049719F4C8010E94FF09898185FFDC
:101750000CC0F801E95AFF4F8081D80193969C9103
:10176000891718F4C8010E94D00A898184FF02C039
:10177000F80193A183FF08C0D801ED91FC9100AC62
:10178000F1ADE02DC80109958A8183FF08C0D80119
:10179000ED91FC9102ACF3ADE02DC80109952981D2
:1017A00022FF0AC0F801848995890196958B848B64
:1017B00082E090E09383828321FF52C06BE4C801F2
:1017C0000E945C08F82EF2E3F81708F48FC0D801E5
:1017D00093968C91F81608F489C0D80193969C9141
:1017E000939793968C912F2D291BA8014C5D5F4FE9
:1017F000480F511D6FE7C8010E94170B67E4C8012D
:101800000E945C08F801868368E4C8010E945C08B5
:10181000D80117968C9369E4C8010E945C08F8010E
:1018200080876AE4C8010E945C08D80119968C93ED
:10183000199752968D919C915397019653969C932C
:101840008E9352979396FC92939782E090E0139632
:101850009C938E93129781E0F801EA5AFF4F8083A0
:10186000898180FF25C0F801808991890196918B3B
:10187000808BC8010E94FF09C8010E94CD0982E047
:1018800090E0D80113969C938E93129712968D91A7
:101890009C911397049761F05F964C91446067E0C8
:1018A000C8010E946F0784E090E0F801938382836F
:1018B0008A8186FF28C066E2C8010E945C0886957E
:1018C0008857082E000C990BD8011F969C938E9375
:1018D0001E970E947304F801E85AFF4F60837183DA
:1018E00082839383C8010E94CD090AC0F8018089D0
:1018F00091890196918B808B82E090E09383828323
:10190000C8010E94FF090F900F90DF91CF911F91A6
:101910000F91FF900895CF93DF93FC0122813381D3
:101920002230310569F0EC01678D858D0E944D0AEA
:1019300060E08C8D0E944D0A82E090E09B838A8358
:10194000DF91CF910895CF93DF9390E0FC01E058B1
:10195000FD4F2491FC01E459FD4F8491882361F1EE
:1019600090E0880F991FFC01E85AFD4FC591D49172
:10197000FC01EE59FD4FA591B491611109C09FB7CB
:10198000F8948881209582238883EC912E230BC0C4
:10199000623061F49FB7F8948881322F30958323A9
:1019A0008883EC912E2B2C939FBF06C08FB7F894A1
:1019B000E8812E2B28838FBFDF91CF9108958F92DE
:1019C0009F92AF92BF92CF92DF92EF92FF926B0104
:1019D0007C010E944E044B015C01C114D104E1045E
:1019E000F104F1F00E944E04DC01CB018819990941
:1019F000AA09BB09883E9340A105B10570F321E017
:101A0000C21AD108E108F10888EE880E83E0981E1A
:101A1000A11CB11CC114D104E104F10419F7DDCFFC
:101A2000FF90EF90DF90CF90BF90AF909F908F90FE
:101A30000895CF93DF93CDB7DEB7C455D1090FB664
:101A4000F894DEBF0FBECDBF789484B5826084BDAC
:101A500084B5816084BD85B5826085BD85B58160B2
:101A600085BD80916E00816080936E001092810030
:101A700080918100826080938100809181008160EB
:101A800080938100809180008160809380008091AC
:101A9000B10084608093B1008091B0008160809338
:101AA000B00080917A00846080937A0080917A00FF
:101AB000826080937A0080917A00816080937A00BE
:101AC00080917A00806880937A001092C100E09142
:101AD000D101F091D20182E08083E091CD01F091BB
:101AE000CE011082E091CF01F091D0018FEC808384
:101AF0001092D901E091D501F091D60186E0808362
:101B0000E091D301F091D401808180618083E091E4
:101B1000D301F091D401808188608083E091D3016A
:101B2000F091D401808180688083E091D301F091AD
:101B3000D40180818F7D80838EE592E00E948908A8
:101B4000811104C084E891E00E94F10982E3F82E3B
:101B50009AE0892E912CA12CB12C8EE592E00E9466
:101B60002008882309F441C06596FFAE6597AE0151
:101B70004C5A5F4FBE016F5F7F4F8EE592E00E942F
:101B80004503882371F180E991E00E94DF09CE01CD
:101B900001960E94F10965962FAD659730E040E00F
:101BA00050E064961FAE649703E310E00C0F1D1F16
:101BB000005E1F4FCA01B901A50194010E943F0FA9
:101BC000605DF80162938F012115310541055105D2
:101BD00089F7CF010E94DF098EE991E00E94DF09B9
:101BE00004C081EA91E00E94F1090E948602B5CF0B
:101BF000E1ECF1E01382128288EE93E0A0E0B0E025
:101C000084839583A683B7838CE191E0918380835D
:101C100085EC90E09587848784EC90E097878687B1
:101C200080EC90E0918B808B81EC90E0938B828BA9
:101C300082EC90E0958B848B86EC90E0978B868B82
:101C4000118E128E138E148EAAEBB2E013961C9294
:101C50001E92129715961C921E92149717961C921C
:101C60001E9216978EE291E011969C938E9380E5DA
:101C700018968C93189719961C921997EEE5F2E036
:101C8000138212828FEF848382878387148615865E
:101C9000118A108A138A128A158A148A108E178A5A
:101CA000B28FA18F9AE0938F28E431E031832083B3
:101CB00092E0958F91E0978F21E030E032A321A34D
:101CC000868F08958F929F92AF92BF92CF92DF92AC
:101CD000EF92FF92CF93DF93EC01688179818A8143
:101CE0009B81611571058105910521F464E279ED0F
:101CF0008BE597E02DE133EF41E050E00E940D0FBE
:101D000049015A019B01AC01A7EAB1E40E942C0FE2
:101D10006B017C01ACEEB4EFA50194010E943A0F77
:101D2000DC01CB018C0D9D1DAE1DBF1DB7FF03C097
:101D30000197A109B04888839983AA83BB83BC011A
:101D4000CD019F77DF91CF91FF90EF90DF90CF9003
:101D5000BF90AF909F908F9008958F929F92AF9277
:101D6000BF92CF92DF92EF92FF9260910401709147
:101D700005018091060190910701611571058105AA
:101D8000910521F464E279ED8BE597E02DE133EFE5
:101D900041E050E00E940D0F49015A019B01AC0146
:101DA000A7EAB1E40E942C0F6B017C01ACEEB4EF0A
:101DB000A50194010E943A0FDC01CB018C0D9D1D01
:101DC000AE1DBF1DB7FF03C00197A109B0488093A6
:101DD000040190930501A0930601B0930701BC0193
:101DE000CD019F77FF90EF90DF90CF90BF90AF90A5
:101DF0009F908F90089560930401709305018093E4
:101E00000601909307010895FB01DC0102C00590D3
:101E10000D9241505040D8F70895052E97FB1EF4BF
:101E200000940E94240F57FD07D00E943F0F07FC2B
:101E300003D04EF40C94240F509540953095219585
:101E40003F4F4F4F5F4F08959095809570956195E6
:101E50007F4F8F4F9F4F08950E94610FA59F900D58
:101E6000B49F900DA49F800D911D11240895B7FF7C
:101E70000C942C0F0E942C0F821B930B0895A1E24F
:101E80001A2EAA1BBB1BFD010DC0AA1FBB1FEE1FF4
:101E9000FF1FA217B307E407F50720F0A21BB30B3F
:101EA000E40BF50B661F771F881F991F1A9469F7BB
:101EB00060957095809590959B01AC01BD01CF0117
:101EC0000895A29FB001B39FC001A39F700D811D13
:101ED0001124911DB29F700D811D1124911D089533
:101EE000EE0FFF1F0590F491E02D099481E090E042
:101EF000F8940C94840FFB01DC0102C001900D9258
:101F000041505040D8F70895F894FFCF7F017F01EA
:101F1000010000000D0E131516191A1C2325262981
:101F20002A2C32340000000017028001AE01640246
:101F3000DF01BD01D10100000000E002DC02D80297
:101F4000B803C402EF02EB02E702AB029A02990265
:101F500000000000890820084503C00793023203EF
:101F60002A03D30404057F040003B10727032403D5
:101F700021031A03B7071703140311030E030A03FF
:101F8000060302034708FC02F802F40298029802D2
:101F9000696E6974206661696C656400676F74209E
:101FA000726571756573743A20000D0A007265637D
:101FB00076206661696C65640000FFFFFFFFFFFF2C
:101FC000FFFFFFFFFFFFFFFFFFFFFFFFFFFFFFFF21
:101FD000FFFFFFFFFFFFFFFFFFFFFFFFFFFFFFFF11
:101FE000FFFFFFFFFFFFFFFFFFFFFFFFFFFFFFFF01
:101FF000FFFFFFFFFFFFFFFFFFFFFFFFFFFFFFFFF1
:10200000099587FD68C0F6018481821105C0432DC2
:10201000642DC4010E942A08F601E30DF11D858597
:10202000841509F458C04586D601ED91FC910190C4
:10203000F081E02D498162E476E0C6010995809146
:102040004206F6019481891711F08F3F69F5A114BA
:10205000B10421F080914306D5018C93EA81FB8184
:10206000309719F08091420680830115110521F007
:1020700080914506D8018C93E114F10421F0809100
:102080004606F701808389818550D3019C91891789
:1020900008F48C93F301408150E067E476E08EE72A
:1020A00093E00E947C1518C08091440691E0980F3F
:1020B00090934406F601E25FFE4F9081891758F431
:1020C000D601ED91FC910280F381E02D498162E41B
:1020D00076E0C6010995512C852D0F900F900F9039
:1020E000DF91CF911F910F91FF90EF90DF90CF90F4
:1020F000BF90AF909F908F907F906F905F904F9028
:102100003F902F900895CF93DF93462FFC01E15F1E
:10211000FE4F20E030E05081B9016F5F7F4F5413D4
:1021200023C0EC01C901880F991F820F931F815FA3
:102130009E4F49E050E0421B530B9A01220F331F80
:10214000420F531F9B01220F331F620F731F615FEA
:102150007E4F6C0F7D1F8C0F9D1F0E947C15C45DF0
:10216000DE4F188281E006C09B0133966A3071050C
:1021700091F680E0DF91CF910895BF92CF92DF92E8
:10218000EF92FF920F931F93CF93DF93EC01062FF3
:10219000B42EC52E122FDFB6F894898D9A8DDC01EE
:1021A000ED91FC910088F189E02D099560E08B8D1F
:1021B0000E94C802898D9A8D602F6F77DC01ED91A6
:1021C000FC910190F081E02D0995082FEB2CFC2C5F
:1021D000112379F0898D9A8DDC01ED91FC910190AC
:1021E000F081E02D60E00995F70181937F011150A6
:1021F000EFCF61E08B8D0E94C802898D9A8DDC0142
:10220000ED91FC910288F389E02D0995DFBE802FC6
:10221000DF91CF911F910F91FF90EF90DF90CF90C2
:10222000BF900895BF92CF92DF92EF92FF920F93EB
:102230001F93CF93DF93EC01062FB42EC52E122FE0
:10224000DFB6F894898D9A8DDC01ED91FC910088C0
:10225000F189E02D099560E08B8D0E94C802898D7F
:102260009A8D602F6068DC01ED91FC910190F08106
:10227000E02D0995082FEB2CFC2C112371F0898D92
:102280009A8DF70161917F01DC01ED91FC91019044
:10229000F081E02D09951150F0CF61E08B8D0E9407
:1022A000C802898D9A8DDC01ED91FC910288F38939
:1022B000E02D0995DFBE802FDF91CF911F910F9107
:1022C000FF90EF90DF90CF90BF900895CF93DF9372
:1022D000FC01228133812230310569F0EC01678DE8
:1022E000858D0E94C80260E08C8D0E94C80282E049
:1022F00090E09B838A83DF91CF9108950F931F9382
:10230000CF93FC01C3A18C01095A1F4FF801208112
:10231000C21BCC3308F0CBE3F8012081AC014C5D4B
:102320005F4F420F511D2C2F6FE70E941211F801D1
:102330008081C80FC083CF911F910F9108952FB74F
:10234000F894FC0113A2EA5AFF4F10822FBF0895A0
:10235000CF93DF93EC0142E068E00E94BB0740E0CE
:1023600068E0CE010E94BB07CA5ADF4F1882DF9196
:10237000CF910895CF93DF93CDB7DEB7A5970FB672
:10238000F894DEBF0FBECDBF789484B5826084BD63
:1023900084B5816084BD85B5826085BD85B5816069
:1023A00085BD80916E00816080936E0010928100E7
:1023B00080918100826080938100809181008160A2
:1023C0008093810080918000816080938000809163
:1023D000B10084608093B1008091B00081608093EF
:1023E000B00080917A00846080937A0080917A00B6
:1023F000826080937A0080917A00816080937A0075
:1024000080917A00806880937A001092C100E091F8
:102410008804F091890482E08083E0918404F09143
:1024200085041082E0918604F09187048FEC80830C
:1024300010929004E0918C04F0918D0486E08083EA
:10244000E0918A04F0918B04808180618083E09127
:102450008A04F0918B04808188608083E0918A04F3
:10246000F0918B04808180688083E0918A04F091F0
:102470008B0480818F7D8083809117059091180552
:10248000DC01ED91FC910190F081E02D099588230C
:1024900009F44CC010911905809117059091180509
:1024A000DC01ED91FC910688F789E02D612F0995FB
:1024B0008091170590911805DC01ED91FC91028C3B
:1024C000F38DE02D612F0995109319058EE180930E
:1024D00023067AEFD72E8DE991E00E94E30EE4E225
:1024E000F6E080E090E02081243069F4228122230C
:1024F00051F09C01220F331F820F931F8C5D994F67
:10250000892BC9F405C0019633968A30910559F795
:1025100064E085E195E00E946E0A81110CC080ECB8
:1025200091E00E94E30E0E94180BD5CF8EEF91E050
:102530000E94E30ECECF10927E038DE0E0E0F1E04A
:10254000AFE7B3E001900D928A95E1F7209119056C
:1025500044E06EE085E195E00E94F10E8111DFCF4D
:102560000E946D0349EFC42E4B015C01B8EB8B0E4A
:10257000BBE09B1EA11CB11C52E0752E0E946D0396
:10258000A5019401261B370B480B590BCA01B90151
:1025900012161306140615060CF0C5C087E195E067
:1025A0000E94D408882351F3DDA2AE014F5F5F4F34
:1025B0007A018E010E5D1F4F9E012D5D3F4F4D5DD7
:1025C0005F4FBE016B5D7F4F85E195E00E949A0FE2
:1025D000082F882399F28DA1882301F190917E0321
:1025E00091111CC01CA181508C1508F4C82E4C2DD3
:1025F00050E06FE773E082E792E00E947C150023D1
:1026000009F4BCCF8BE592E00E94D10E412F50E03F
:1026100060E070E019A2CE0181964BC09BA19F3F64
:1026200009F0ACCF823008F4A9CF90917E039130AD
:1026300009F0A4CF909119052CA1921709F49ECF0F
:102640003DEFF32EF80E01E813E0F80180E08F155E
:1026500030F42191921709F491CF8F5FF8CF87E181
:1026600095E00E946F08482F6CA185E195E00E94DB
:10267000410FE12CEF1470F487E195E00E946F08A0
:10268000D8016D918D01482F85E195E00E94410FA1
:10269000E394F0CF80917F03813071F52091800326
:1026A00080911905281328C070927E034CA16DA15A
:1026B00035C08A019B010F7011272227332724E0A0
:1026C00076956795579547952A95D1F701970A30E2
:1026D00014F4005D01C0095CFC0100834115510543
:1026E0006105710531F70E94D10E8DEB91E00E94DA
:1026F000D10E82E792E015CF80912306F81608F0FC
:102700003DCFEF2DF0E0E258FC4F80911905838317
:102710008DA161E0680F6DA32CA14FEF85E195E0DD
:102720000E94F10E2BCF8AE092E0FBCE10927B0448
:1027300010927A0488EE93E0A0E0B0E080937C04ED
:1027400090937D04A0937E04B0937F0489E291E08E
:10275000909379048093780485EC90E090938504BD
:102760008093840484EC90E09093870480938604A3
:1027700080EC90E0909389048093880481EC90E051
:1027800090938B0480938A0482EC90E090938D0464
:1027900080938C0486EC90E090938F0480938E0459
:1027A0001092910410929204109293041092940447
:1027B0001092440710924307109246071092450763
:1027C00010924807109247078BE391E090934207DD
:1027D0008093410780E58093490710924A07109241
:1027E0004E0710924D078FEF80934F078093550748
:1027F00080935607109257071092580710925C0763
:1028000010925B0710925E0710925D0710926007AE
:1028100010925F07109263071092620721E437E07D
:1028200030936507209364079AE09093660721E64A
:1028300031E030934C0720934B0792E09093680768
:1028400091E090936A0721E030E030936D07209388
:102850006C07809369072BE437E0309318052093C9
:1028600017059093190510921A0510921B051092E6
:102870001C0510921D0510921E0588EC90E09093A7
:10288000200580931F0583E08093210580E091E07F
:10289000E2E2F5E0DF019C011D9221503040E1F7BA
:1028A0008EE180932306E6E2F6E084E496E010826F
:1028B00033968E179F07D9F785E591E0909316051B
:1028C0008093150508958F929F92AF92BF92CF92F9
:1028D000DF92EF92FF92CF93DF93EC0168817981D1
:1028E0008A819B81611571058105910521F464E25E
:1028F00079ED8BE597E02DE133EF41E050E00E9468
:102900000E1549015A019B01AC01A7EAB1E40E94EE
:102910002D156B017C01ACEEB4EFA50194010E9472
:102920003B15DC01CB018C0D9D1DAE1DBF1DB7FFFE
:1029300003C00197A109B04888839983AA83BB8308
:10294000BC01CD019F77DF91CF91FF90EF90DF9099
:10295000CF90BF90AF909F908F9008958F929F924D
:10296000AF92BF92CF92DF92EF92FF9260911101EE
:1029700070911201809113019091140161157105FC
:102980008105910521F464E279ED8BE597E02DE175
:1029900033EF41E050E00E940E1549015A019B01BE
:1029A000AC01A7EAB1E40E942D156B017C01ACEEED
:1029B000B4EFA50194010E943B15DC01CB018C0D05
:1029C0009D1DAE1DBF1DB7FF03C00197A109B048F3
:1029D0008093110190931201A0931301B0931401FD
:1029E000BC01CD019F77FF90EF90DF90CF90BF901B
:1029F000AF909F908F900895609311017093120192
:102A000080931301909314010895FB01DC0102C02F
:102A100005900D9241505040D8F70895052E97FB30
:102A20001EF400940E94251557FD07D00E94401502
:102A300007FC03D04EF40C94251550954095309525
:102A400021953F4F4F4F5F4F08959095809570951A
:102A500061957F4F8F4F9F4F08950E946215A59FEC
:102A6000900DB49F900DA49F800D911D1124089589
:102A7000B7FF0C942D150E942D15821B930B089502
:102A8000A1E21A2EAA1BBB1BFD010DC0AA1FBB1F72
:102A9000EE1FFF1FA217B307E407F50720F0A21BE4
:102AA000B30BE40BF50B661F771F881F991F1A9451
:102AB00069F760957095809590959B01AC01BD017B
:102AC000CF010895A29FB001B39FC001A39F700DD5
:102AD000811D1124911DB29F700D811D1124911D26
:102AE0000895EE0FFF1F0590F491E02D099481E009
:102AF00090E0F8940C948515FB01DC0102C0019074
:102B00000D9241505040D8F70895F894FFCF486592
:102B10006C6C6F20576F726C642100A401A40101DA
:102B20000000000D0E131516191A1C232526292A3C
:102B30002C323400000000EE01A501D3013B020C51
:102B40000BEA0AFE0A00000000DA05D605D20525C8
:102B500007BE05E905E505E105A505940593050012
:102B600000000079082C0A6E0A8905000000002583
:102B70000C340BD00B700B220B32062A066B069C12
:102B800006D106FA05250B21061E061B0614062B88
:102B90000B11060E060B06080604060006FC055B74
:102BA0000BF605F205EE05240B240B53656E6469E4
:102BB0006E6720746F206D616E616765725F6D6511
:102BC00073685F73657276657233003A20007365CF
:102BD0006E64746F57616974206661696C65642EF8
:102BE000204172652074686520696E7465726D6538
:102BF0006469617465206D657368207365727665BC
:102C000072732072756E6E696E673F00696E6974CB
:102C1000206661696C6564004E6F207265706C7926
:102C20002C20697320726632325F6D6573685F7342
:102C30006572766572312C20726632325F6D657313
:102C4000685F7365727665723220616E64207266A9
:102C500032325F6D6573685F7365727665723320BB
:102C600072756E6E696E673F00676F742072657073
:102C70006C792066726F6D203A203078000D0A0062
:102C8000FFFFFFFFFFFFFFFFFFFFFFFFFFFFFFFF54
:102C9000FFFFFFFFFFFFFFFFFFFFFFFFFFFFFFFF44
:102CA000FFFFFFFFFFFFFFFFFFFFFFFFFFFFFFFF34
:102CB000FFFFFFFFFFFFFFFFFFFFFFFFFFFFFFFF24
:107800000C94343C0C94513C0C94513C0C94513CE1
:107810000C94513C0C94513C0C94513C0C94513CB4
:107820000C94513C0C94513C0C94513C0C94513CA4
:107830000C94513C0C94513C0C94513C0C94513C94
:107840000C94513C0C94513C0C94513C0C94513C84
:107850000C94513C0C94513C0C94513C0C94513C74
:107860000C94513C0C94513C11241FBECFEFD8E036
:10787000DEBFCDBF11E0A0E0B1E0ECE9FFE702C060
:1078800005900D92A230B107D9F712E0A2E0B1E065
:1078900001C01D92AD30B107E1F70E942D3D0C945F
:1078A000CC3F0C94003C982F959595959595959582
:1078B000905D8F708A307CF0282F295A8091C0000B
:1078C00085FFFCCF9093C6008091C00085FFFCCF60
:1078D0002093C6000895282F205DF0CF982F809127
:1078E000C00085FFFCCF9093C6000895EF92FF92F1
:1078F0000F931F93EE24FF2487018091C00087FD22
:1079000017C00894E11CF11C011D111D81E4E8164B
:1079100082E4F8068FE0080780E0180770F3E09132
:107920000401F091050109958091C00087FFE9CF1E
:107930008091C6001F910F91FF90EF9008950E94D3
:10794000763C982F8091C00085FFFCCF9093C600B5
:1079500091362CF490330CF09053892F089597555D
:10796000892F08951F930E949F3C182F0E949F3CCF
:107970001295107F810F1F9108951F93182F882350
:1079800021F00E94763C1150E1F71F9108951F935A
:10799000182F0E94763C803249F0809103018F5F5E
:1079A000809303018530C1F01F9108958091C0003C
:1079B00085FFFCCF84E18093C6008091C00085FFE5
:1079C000FCCF1093C6008091C00085FFFCCF80E102
:1079D0008093C6001F910895E0910401F091050184
:1079E00009951F9108950E94763C803241F0809164
:1079F00003018F5F80930301853081F008958091AA
:107A0000C00085FFFCCF84E18093C6008091C00058
:107A100085FFFCCF80E18093C6000895E0910401CA
:107A2000F09105010995089540E951E08823A1F0FE
:107A30002D9A28EE33E0FA013197F1F721503040CA
:107A4000D1F72D9828EE33E0FA013197F1F7215064
:107A50003040D1F7815061F708953F924F925F9285
:107A60006F927F928F929F92AF92BF92CF92DF924E
:107A7000EF92FF920F931F93CF93DF93000080E16B
:107A80008093C4001092C50088E18093C10086E015
:107A90008093C2005098589A259A81E00E94143D24
:107AA00024E1F22E9EE1E92E85E9D82E0FE0C02ECA
:107AB00010E1B12EAA24A394B1E49B2EA6E58A2E50
:107AC000F2E57F2EE0E26E2E79E4572E63E5462E36
:107AD00050E5352E0E94763C8033B1F18133B9F107
:107AE000803409F46FC0813409F476C0823409F41B
:107AF00085C0853409F488C0803531F1823521F1A3
:107B0000813511F1853509F485C0863509F48DC0BC
:107B1000843609F496C0843709F403C1853709F423
:107B200072C1863709F466C0809103018F5F80932C
:107B30000301853079F6E0910401F0910501099582
:107B40000E94763C803351F60E94F33CC3CF0E94E2
:107B5000763C803249F78091C00085FFFCCFF092DF
:107B6000C6008091C00085FFFCCF9092C600809136
:107B7000C00085FFFCCF8092C6008091C00085FFC9
:107B8000FCCF7092C6008091C00085FFFCCF609250
:107B9000C6008091C00085FFFCCF5092C600809146
:107BA000C00085FFFCCF4092C6008091C00085FFD9
:107BB000FCCF3092C6008091C00085FFFCCFB09210
:107BC000C60088CF0E94763C863808F4BDCF0E945C
:107BD000763C0E94F33C7ECF0E94763C803809F4CC
:107BE0009CC0813809F40BC1823809F43CC1883942
:107BF00009F48FC080E00E94C73C6CCF84E10E94F2
:107C0000BD3C0E94F33C66CF85E00E94BD3C0E94D3
:107C1000F33C60CF0E94763C809306010E94763C44
:107C2000809307010E94F33C55CF0E94763C80333D
:107C300009F41DC183E00E94BD3C80E00E94C73C66
:107C400049CF0E94763C809309020E94763C809343
:107C5000080280910C028E7F80930C020E94763C79
:107C6000853409F415C18091080290910902892B8D
:107C700089F000E010E00E94763CF801E85FFE4FDA
:107C800080830F5F1F4F80910802909109020817AF
:107C9000190788F30E94763C803209F045CF809125
:107CA0000C0280FF01C16091060170910701660F0F
:107CB000771F7093070160930601A0910802B091AD
:107CC00009021097C9F0E8E0F1E09B01AD014E0F09
:107CD0005F1FF999FECF32BD21BD819180BDFA9A17
:107CE000F99A2F5F3F4FE417F50799F76A0F7B1F4B
:107CF00070930701609306018091C00085FFFCCF5F
:107D0000F092C6008091C00085FFFCCFB092C60003
:107D1000E1CE83E00E94C73CDDCE82E00E94C73CFA
:107D2000D9CE0E94763C809309020E94763C8093D3
:107D300008028091060190910701880F991F909386
:107D40000701809306010E94763C853409F4A6C0A1
:107D500080910C028E7F80930C020E94763C8032D0
:107D600009F0B8CE8091C00085FFFCCFF092C6002C
:107D7000609108027091090261157105B9F140E046
:107D800050E080910C02A82FA170B82FB27011C0E2
:107D9000BB2309F45CC0E0910601F0910701319624
:107DA000F0930701E09306014F5F5F4F46175707B7
:107DB000E8F4AA2369F3F999FECF209106013091E6
:107DC000070132BD21BDF89A90B58091C00085FFB2
:107DD000FCCF9093C6002F5F3F4F30930701209355
:107DE00006014F5F5F4F4617570718F38091C00099
:107DF00085FDE5CE8091C00085FFF8CFE0CE81E023
:107E00000E94C73C67CE0E94763C803209F08CCE3F
:107E10008091C00085FFFCCFF092C6008091C00029
:107E200085FFFCCFE092C6008091C00085FFFCCFAB
:107E3000D092C6008091C00085FFFCCFC092C600E2
:107E40008091C00085FFFCCFB092C60043CEE09188
:107E50000601F091070194918091C00085FFFCCF4D
:107E60009093C6009CCF80E10E94C73C33CE0E9415
:107E7000763C0E94763C182F0E94763C112309F430
:107E800083C0113009F484C08FE00E94C73C22CE29
:107E900080910C02816080930C02E5CE80910C02EF
:107EA000816080930C0259CF809107018823880F4D
:107EB000880B8A2180930B02809106019091070123
:107EC000880F991F90930701809306018091080203
:107ED00080FF09C080910802909109020196909359
:107EE000090280930802F894F999FECF1127E091D6
:107EF0000601F0910701C8E0D1E08091080290915D
:107F00000902103091F40091570001700130D9F34B
:107F100003E000935700E89500915700017001308D
:107F2000D9F301E100935700E89509901990009169
:107F3000570001700130D9F301E000935700E89534
:107F40001395103498F011270091570001700130FB
:107F5000D9F305E000935700E895009157000170B0
:107F60000130D9F301E100935700E895329602976A
:107F700009F0C7CF103011F00296E5CF112480919F
:107F8000C00085FFB9CEBCCE8EE10E94C73CA2CD19
:107F900085E90E94C73C9ECDF894FFCF8000FFFF8B
:107FA000FFFFFFFFFFFFFFFFFFFFFFFFFFFFFFFFE1
:107FB000FFFFFFFFFFFFFFFFFFFFFFFFFFFFFFFFD1
:107FC000FFFFFFFFFFFFFFFFFFFFFFFFFFFFFFFFC1
:107FD000FFFFFFFFFFFFFFFFFFFFFFFFFFFFFFFFB1
:107FE000FFFFFFFFFFFFFFFFFFFFFFFFFFFFFFFFA1
:107FF000FFFFFFFFFFFFFFFFFFFFFFFFFFFFFFFF91
:00000001FF
